:060000000A128A11142906
:100200008A010A140F3982073F3406345B344F34B5
:1002100066346D347D3407347F346F3477347C3406
:1002200039345E34793471341B2130213721031382
:100230008312422146218316031788018901031383
:1002400009148914860188018701850183128701B9
:1002500086018801850108009C3081000B1108008F
:10026000031383160F138F160F120F1408000313B6
:100270008316811281110115811001140313831259
:100280002C21080076214C21462142290B1D4629AC
:100290002C21880A6D21080009180000091C55212D
:1002A00089180000891C5F210800091C5529860A4D
:1002B0000608002187008709061A86010800891CA4
:1002C0005F2986030608002187008709861F08002A
:1002D000692186010F30860008008819881C0800F3
:1002E0008801850A051E0800850108000608050228
:0C02F00003138312031D080085010800A1
:04400E00C430FF3F7C
:00000001FF
